:100000009E29000000000800A000030E83120313C5
:10001000A3000A08A4008A010C1C1328652083127F
:1000200003130C101A280B1D1A28831203133118FE
:1000300023200B118312031324088A00230E83004C
:10004000A00E200E090083120313B20B08008312C6
:100050000313B11C3328B11036088F0035088E0009
:10006000101407153C2883120313B11434088F00B1
:1000700033088E00101487142C3083120313B2003F
:1000800036300605A5003F092505A600A61C4B280D
:10009000BB0A0319BC0A83120313261D5228BD0A8A
:1000A0000319BE0A83120313261E5928B90A03191D
:1000B000BA0A83120313A61E6028B70A0319B80AE6
:1000C000831203132508BF000800831203131010C6
:1000D0008710071108008312031385018601870129
:1000E000FF3083168500FF308600F8308700080057
:1000F0000230831603139F00080083120313B70115
:10010000B801B901BA01BB01BC01BD01BE01BF010B
:1001100008008312031387100711B101B301B40162
:10012000B501B6017D28831203132E09B4002D09F1
:10013000B300B30A0319B40A0800831203132E098B
:10014000B6002D09B500B50A0319B60A08008312D6
:1001500003138101803083168100831290010130E6
:10016000B20008008B018B160B17831603130C14B7
:100170008B1708006B2078208920A720B2288312D3
:100180000313AD00C1302D049F001D30AE0083125B
:100190000313AE0BC7281F15831203131F19CC2896
:1001A000831203131E08080083120313AF00AF0865
:1001B000031DDC280130AF00F93083120313B000B7
:1001C00083120313B00BE028AF0BDC280800831266
:1001D00003132D082E04031DF0280130AD00AE01DD
:1001E000FA30D42083120313AD032D0A0319AE0392
:1001F0002D082E04031DF028080083120313AC0100
:1002000083120313061C0029FF30D420831203132A
:10021000061C0C290130AC0083120313AC0803192F
:10022000002908002A3083120313AD000D30AE0000
:1002300093205B3083120313AD000E30AE009D207F
:10024000013083120313AD00AE01E7207530831235
:100250000313AD000D30AE00932010308312031352
:10026000AD000E30AE009D20013083120313AD00AF
:10027000AE01E720A73083120313AD000D30AE00AE
:100280009320DE3083120313AD000D30AE009D20AD
:10029000013083120313AD00AE01E720C03083129A
:1002A0000313AD000D30AE009320C530831203134D
:1002B000AD000D30AE009D28A73083120313AD00B2
:1002C0000D30AE009320DE3083120313AD000D30ED
:1002D000AE009D20013083120313AD00AE01E72074
:1002E000753083120313AD000D30AE009320103033
:1002F00083120313AD000E30AE009D200130831237
:100300000313AD00AE01E7202A3083120313AD00C2
:100310000D30AE0093205B3083120313AD000E301E
:10032000AE009D20013083120313AD00AE01E72023
:10033000013083120313AD00AE01E72883120313CB
:10034000A901AA01AB01BA20FD20831203133114C5
:100350005C210030BF2083120313A70073302702F3
:100360000318BF29B730AD000C30AE009320C53064
:1003700083120313AD000D30AE009D20E0298530BF
:10038000831203132702031CD229B230AD0093302D
:10039000AE009D20C03083120313AD000D30AE00BF
:1003A0009320E029B73083120313AD000C30AE0068
:1003B0009320B23083120313AD009330AE009D2022
:1003C0001030BF2083120313A800AC01A330280211
:1003D0000318EE297C3028020318342A01308312D6
:1003E0000313AD00AE01E7201030BF2083120313CA
:1003F000A800A33028020318012A7C302802031821
:10040000342A013083120313A9001221A33083126E
:1004100003132802031C142A07143230AD00AE0166
:10042000E7208312031307107C3083120313280282
:100430000318302A0D30831203132C020318302ABC
:1004400007140230AD00AE01E7208312031307103A
:100450000230AD00AE01E72083120313AC0A1A2A62
:100460008312031307105C2183120313AA01AB014B
:1004700083120313290BA9290030BF208312031311
:10048000A700733027020318522AB730AD000C3092
:10049000AE009320C53083120313AD000D30AE00C3
:1004A0009D20732A8530831203132702031C652ABB
:1004B000B230AD009330AE009D20C03083120313E4
:1004C000AD000D30AE009320732AB73083120313B2
:1004D000AD000C30AE009320B23083120313AD0098
:1004E0009330AE009D202730831203132B02031C90
:1004F000822A031D7F2A10302A02031C822A8312BB
:100500000313A90183120313AA0A0319AB0A382A99
:02400E00FA3F77
:00000001FF
