:100000001229000000000800A000030E8312031351
:10001000A3000A08A4008A010C1C1328652083127F
:1000200003130C101A280B1D1A28831203132A1805
:1000300023200B118312031324088A00230E83004C
:10004000A00E200E090083120313AB0B08008312CD
:100050000313AA1C3328AA102F088F002E088E0025
:10006000101407153C2883120313AA142D088F00BF
:100070002C088E00101487142C3083120313AB004D
:1000800036300605A50038092505A600A61C4B2814
:10009000B40A0319B50A83120313261D5228B60A9F
:1000A0000319B70A83120313261E5928B20A03192B
:1000B000B30A83120313A61E6028B00A0319B10AFB
:1000C000831203132508B8000800831203131010CD
:1000D0008710071108008312031385018601870129
:1000E000FF3083168500FF308600F8308700080057
:1000F0000230831603139F00080083120313B0011C
:10010000B101B201B301B401B501B601B701B80143
:1001100008008312031387100711AA01AC01AD0177
:10012000AE01AF017D28831203137F09AD007F0963
:10013000AC00AC0A0319AD0A0800831203137F094F
:10014000AF007F09AE00AE0A0319AF0A08008312A0
:1001500003138101803083168100831290010130E6
:10016000AB0008008B018B160B17831603130C14BE
:100170008B1708006B2078208920A720B2288312D3
:100180000313A800C13028049F001D30A90083126A
:100190000313A90BC7281F15831203131F19CC289B
:1001A000831203131E08080083120313A800A80873
:1001B000031DDC280130A800F93083120313A900C5
:1001C00083120313A90BE028A80BDC280800831274
:1001D00003137F087F04031DF0280130FF00FF0197
:1001E000FA30D42083120313FF037F0A0319FF039D
:1001F0007F087F04031DF028080083120313FF010A
:1002000083120313061C0029FF30D420831203132A
:10021000061C0C290130FF0083120313FF08031989
:1002200000290800BA201030BF2083120313A70052
:1002300007142708D420831203130710A7092708DF
:04024000D42013298A
:02400E00FA3F77
:00000001FF
